{
  "_format": "hh-sol-artifact-1",
  "contractName": "WiiQareVoucherV1",
  "sourceName": "contracts/WiiQareVoucherV1.sol",
  "abi": [
    {
      "inputs": [],
      "stateMutability": "nonpayable",
      "type": "constructor"
    },
    {
      "anonymous": false,
      "inputs": [
        {
          "indexed": true,
          "internalType": "address",
          "name": "owner",
          "type": "address"
        },
        {
          "indexed": true,
          "internalType": "address",
          "name": "approved",
          "type": "address"
        },
        {
          "indexed": true,
          "internalType": "uint256",
          "name": "tokenId",
          "type": "uint256"
        }
      ],
      "name": "Approval",
      "type": "event"
    },
    {
      "anonymous": false,
      "inputs": [
        {
          "indexed": true,
          "internalType": "address",
          "name": "owner",
          "type": "address"
        },
        {
          "indexed": true,
          "internalType": "address",
          "name": "operator",
          "type": "address"
        },
        {
          "indexed": false,
          "internalType": "bool",
          "name": "approved",
          "type": "bool"
        }
      ],
      "name": "ApprovalForAll",
      "type": "event"
    },
    {
      "anonymous": false,
      "inputs": [
        {
          "indexed": true,
          "internalType": "address",
          "name": "previousOwner",
          "type": "address"
        },
        {
          "indexed": true,
          "internalType": "address",
          "name": "newOwner",
          "type": "address"
        }
      ],
      "name": "OwnershipTransferred",
      "type": "event"
    },
    {
      "anonymous": false,
      "inputs": [
        {
          "indexed": false,
          "internalType": "address",
          "name": "account",
          "type": "address"
        }
      ],
      "name": "Paused",
      "type": "event"
    },
    {
      "anonymous": false,
      "inputs": [
        {
          "indexed": true,
          "internalType": "address",
          "name": "from",
          "type": "address"
        },
        {
          "indexed": true,
          "internalType": "address",
          "name": "to",
          "type": "address"
        },
        {
          "indexed": true,
          "internalType": "uint256",
          "name": "tokenId",
          "type": "uint256"
        }
      ],
      "name": "Transfer",
      "type": "event"
    },
    {
      "anonymous": false,
      "inputs": [
        {
          "indexed": false,
          "internalType": "address",
          "name": "account",
          "type": "address"
        }
      ],
      "name": "Unpaused",
      "type": "event"
    },
    {
      "anonymous": false,
      "inputs": [
        {
          "indexed": false,
          "internalType": "uint256",
          "name": "voucherID",
          "type": "uint256"
        },
        {
          "components": [
            {
              "internalType": "uint256",
              "name": "value",
              "type": "uint256"
            },
            {
              "internalType": "string",
              "name": "currencySymbol",
              "type": "string"
            },
            {
              "internalType": "string",
              "name": "ownerID",
              "type": "string"
            },
            {
              "internalType": "string",
              "name": "providerID",
              "type": "string"
            },
            {
              "internalType": "string",
              "name": "beneficiaryID",
              "type": "string"
            },
            {
              "internalType": "string",
              "name": "status",
              "type": "string"
            }
          ],
          "indexed": false,
          "internalType": "struct WiiQareVoucherV1.Voucher",
          "name": "voucher",
          "type": "tuple"
        }
      ],
      "name": "alterVoucherEvent",
      "type": "event"
    },
    {
      "anonymous": false,
      "inputs": [
        {
          "indexed": false,
          "internalType": "uint256",
          "name": "voucherID",
          "type": "uint256"
        }
      ],
      "name": "burnVoucher",
      "type": "event"
    },
    {
      "anonymous": false,
      "inputs": [
        {
          "indexed": false,
          "internalType": "uint256",
          "name": "voucherID",
          "type": "uint256"
        },
        {
          "components": [
            {
              "internalType": "uint256",
              "name": "value",
              "type": "uint256"
            },
            {
              "internalType": "string",
              "name": "currencySymbol",
              "type": "string"
            },
            {
              "internalType": "string",
              "name": "ownerID",
              "type": "string"
            },
            {
              "internalType": "string",
              "name": "providerID",
              "type": "string"
            },
            {
              "internalType": "string",
              "name": "beneficiaryID",
              "type": "string"
            },
            {
              "internalType": "string",
              "name": "status",
              "type": "string"
            }
          ],
          "indexed": false,
          "internalType": "struct WiiQareVoucherV1.Voucher",
          "name": "nftVoucer",
          "type": "tuple"
        }
      ],
      "name": "mintVoucherEvent",
      "type": "event"
    },
    {
      "anonymous": false,
      "inputs": [
        {
          "indexed": false,
          "internalType": "uint256",
          "name": "voucherID",
          "type": "uint256"
        },
        {
          "components": [
            {
              "internalType": "uint256",
              "name": "value",
              "type": "uint256"
            },
            {
              "internalType": "string",
              "name": "currencySymbol",
              "type": "string"
            },
            {
              "internalType": "string",
              "name": "ownerID",
              "type": "string"
            },
            {
              "internalType": "string",
              "name": "providerID",
              "type": "string"
            },
            {
              "internalType": "string",
              "name": "beneficiaryID",
              "type": "string"
            },
            {
              "internalType": "string",
              "name": "status",
              "type": "string"
            }
          ],
          "indexed": false,
          "internalType": "struct WiiQareVoucherV1.Voucher",
          "name": "firstVoucher",
          "type": "tuple"
        },
        {
          "components": [
            {
              "internalType": "uint256",
              "name": "value",
              "type": "uint256"
            },
            {
              "internalType": "string",
              "name": "currencySymbol",
              "type": "string"
            },
            {
              "internalType": "string",
              "name": "ownerID",
              "type": "string"
            },
            {
              "internalType": "string",
              "name": "providerID",
              "type": "string"
            },
            {
              "internalType": "string",
              "name": "beneficiaryID",
              "type": "string"
            },
            {
              "internalType": "string",
              "name": "status",
              "type": "string"
            }
          ],
          "indexed": false,
          "internalType": "struct WiiQareVoucherV1.Voucher",
          "name": "secondVoucher",
          "type": "tuple"
        }
      ],
      "name": "splitVoucherEvent",
      "type": "event"
    },
    {
      "anonymous": false,
      "inputs": [
        {
          "indexed": false,
          "internalType": "uint256",
          "name": "voucherID",
          "type": "uint256"
        },
        {
          "indexed": false,
          "internalType": "string",
          "name": "ownerID",
          "type": "string"
        }
      ],
      "name": "transferVoucherEvent",
      "type": "event"
    },
    {
      "inputs": [
        {
          "internalType": "uint256",
          "name": "voucherID",
          "type": "uint256"
        },
        {
          "components": [
            {
              "internalType": "uint256",
              "name": "value",
              "type": "uint256"
            },
            {
              "internalType": "string",
              "name": "currencySymbol",
              "type": "string"
            },
            {
              "internalType": "string",
              "name": "ownerID",
              "type": "string"
            },
            {
              "internalType": "string",
              "name": "providerID",
              "type": "string"
            },
            {
              "internalType": "string",
              "name": "beneficiaryID",
              "type": "string"
            },
            {
              "internalType": "string",
              "name": "status",
              "type": "string"
            }
          ],
          "internalType": "struct WiiQareVoucherV1.Voucher",
          "name": "voucher",
          "type": "tuple"
        }
      ],
      "name": "alterVoucher",
      "outputs": [],
      "stateMutability": "nonpayable",
      "type": "function"
    },
    {
      "inputs": [
        {
          "internalType": "address",
          "name": "to",
          "type": "address"
        },
        {
          "internalType": "uint256",
          "name": "tokenId",
          "type": "uint256"
        }
      ],
      "name": "approve",
      "outputs": [],
      "stateMutability": "nonpayable",
      "type": "function"
    },
    {
      "inputs": [
        {
          "internalType": "address",
          "name": "owner",
          "type": "address"
        }
      ],
      "name": "balanceOf",
      "outputs": [
        {
          "internalType": "uint256",
          "name": "",
          "type": "uint256"
        }
      ],
      "stateMutability": "view",
      "type": "function"
    },
    {
      "inputs": [
        {
          "internalType": "uint256",
          "name": "tokenId",
          "type": "uint256"
        }
      ],
      "name": "burn",
      "outputs": [],
      "stateMutability": "nonpayable",
      "type": "function"
    },
    {
      "inputs": [],
      "name": "getAllVouchers",
      "outputs": [
        {
          "components": [
            {
              "internalType": "uint256",
              "name": "value",
              "type": "uint256"
            },
            {
              "internalType": "string",
              "name": "currencySymbol",
              "type": "string"
            },
            {
              "internalType": "string",
              "name": "ownerID",
              "type": "string"
            },
            {
              "internalType": "string",
              "name": "providerID",
              "type": "string"
            },
            {
              "internalType": "string",
              "name": "beneficiaryID",
              "type": "string"
            },
            {
              "internalType": "string",
              "name": "status",
              "type": "string"
            }
          ],
          "internalType": "struct WiiQareVoucherV1.Voucher[]",
          "name": "",
          "type": "tuple[]"
        }
      ],
      "stateMutability": "view",
      "type": "function"
    },
    {
      "inputs": [
        {
          "internalType": "uint256",
          "name": "tokenId",
          "type": "uint256"
        }
      ],
      "name": "getApproved",
      "outputs": [
        {
          "internalType": "address",
          "name": "",
          "type": "address"
        }
      ],
      "stateMutability": "view",
      "type": "function"
    },
    {
      "inputs": [
        {
          "internalType": "address",
          "name": "owner",
          "type": "address"
        },
        {
          "internalType": "address",
          "name": "operator",
          "type": "address"
        }
      ],
      "name": "isApprovedForAll",
      "outputs": [
        {
          "internalType": "bool",
          "name": "",
          "type": "bool"
        }
      ],
      "stateMutability": "view",
      "type": "function"
    },
    {
      "inputs": [
        {
          "components": [
            {
              "internalType": "uint256",
              "name": "value",
              "type": "uint256"
            },
            {
              "internalType": "string",
              "name": "currencySymbol",
              "type": "string"
            },
            {
              "internalType": "string",
              "name": "ownerID",
              "type": "string"
            },
            {
              "internalType": "string",
              "name": "providerID",
              "type": "string"
            },
            {
              "internalType": "string",
              "name": "beneficiaryID",
              "type": "string"
            },
            {
              "internalType": "string",
              "name": "status",
              "type": "string"
            }
          ],
          "internalType": "struct WiiQareVoucherV1.Voucher",
          "name": "voucher",
          "type": "tuple"
        }
      ],
      "name": "mintVoucher",
      "outputs": [],
      "stateMutability": "nonpayable",
      "type": "function"
    },
    {
      "inputs": [],
      "name": "name",
      "outputs": [
        {
          "internalType": "string",
          "name": "",
          "type": "string"
        }
      ],
      "stateMutability": "view",
      "type": "function"
    },
    {
      "inputs": [],
      "name": "owner",
      "outputs": [
        {
          "internalType": "address",
          "name": "",
          "type": "address"
        }
      ],
      "stateMutability": "view",
      "type": "function"
    },
    {
      "inputs": [
        {
          "internalType": "uint256",
          "name": "tokenId",
          "type": "uint256"
        }
      ],
      "name": "ownerOf",
      "outputs": [
        {
          "internalType": "address",
          "name": "",
          "type": "address"
        }
      ],
      "stateMutability": "view",
      "type": "function"
    },
    {
      "inputs": [],
      "name": "pause",
      "outputs": [],
      "stateMutability": "nonpayable",
      "type": "function"
    },
    {
      "inputs": [],
      "name": "paused",
      "outputs": [
        {
          "internalType": "bool",
          "name": "",
          "type": "bool"
        }
      ],
      "stateMutability": "view",
      "type": "function"
    },
    {
      "inputs": [],
      "name": "renounceOwnership",
      "outputs": [],
      "stateMutability": "nonpayable",
      "type": "function"
    },
    {
      "inputs": [
        {
          "internalType": "address",
          "name": "from",
          "type": "address"
        },
        {
          "internalType": "address",
          "name": "to",
          "type": "address"
        },
        {
          "internalType": "uint256",
          "name": "tokenId",
          "type": "uint256"
        }
      ],
      "name": "safeTransferFrom",
      "outputs": [],
      "stateMutability": "nonpayable",
      "type": "function"
    },
    {
      "inputs": [
        {
          "internalType": "address",
          "name": "from",
          "type": "address"
        },
        {
          "internalType": "address",
          "name": "to",
          "type": "address"
        },
        {
          "internalType": "uint256",
          "name": "tokenId",
          "type": "uint256"
        },
        {
          "internalType": "bytes",
          "name": "data",
          "type": "bytes"
        }
      ],
      "name": "safeTransferFrom",
      "outputs": [],
      "stateMutability": "nonpayable",
      "type": "function"
    },
    {
      "inputs": [
        {
          "internalType": "address",
          "name": "operator",
          "type": "address"
        },
        {
          "internalType": "bool",
          "name": "approved",
          "type": "bool"
        }
      ],
      "name": "setApprovalForAll",
      "outputs": [],
      "stateMutability": "nonpayable",
      "type": "function"
    },
    {
      "inputs": [
        {
          "internalType": "uint256",
          "name": "voucherID",
          "type": "uint256"
        },
        {
          "components": [
            {
              "internalType": "uint256",
              "name": "value",
              "type": "uint256"
            },
            {
              "internalType": "string",
              "name": "currencySymbol",
              "type": "string"
            },
            {
              "internalType": "string",
              "name": "ownerID",
              "type": "string"
            },
            {
              "internalType": "string",
              "name": "providerID",
              "type": "string"
            },
            {
              "internalType": "string",
              "name": "beneficiaryID",
              "type": "string"
            },
            {
              "internalType": "string",
              "name": "status",
              "type": "string"
            }
          ],
          "internalType": "struct WiiQareVoucherV1.Voucher",
          "name": "firstVoucher",
          "type": "tuple"
        },
        {
          "components": [
            {
              "internalType": "uint256",
              "name": "value",
              "type": "uint256"
            },
            {
              "internalType": "string",
              "name": "currencySymbol",
              "type": "string"
            },
            {
              "internalType": "string",
              "name": "ownerID",
              "type": "string"
            },
            {
              "internalType": "string",
              "name": "providerID",
              "type": "string"
            },
            {
              "internalType": "string",
              "name": "beneficiaryID",
              "type": "string"
            },
            {
              "internalType": "string",
              "name": "status",
              "type": "string"
            }
          ],
          "internalType": "struct WiiQareVoucherV1.Voucher",
          "name": "secondVoucher",
          "type": "tuple"
        }
      ],
      "name": "splitVoucher",
      "outputs": [],
      "stateMutability": "nonpayable",
      "type": "function"
    },
    {
      "inputs": [
        {
          "internalType": "bytes4",
          "name": "interfaceId",
          "type": "bytes4"
        }
      ],
      "name": "supportsInterface",
      "outputs": [
        {
          "internalType": "bool",
          "name": "",
          "type": "bool"
        }
      ],
      "stateMutability": "view",
      "type": "function"
    },
    {
      "inputs": [],
      "name": "symbol",
      "outputs": [
        {
          "internalType": "string",
          "name": "",
          "type": "string"
        }
      ],
      "stateMutability": "view",
      "type": "function"
    },
    {
      "inputs": [
        {
          "internalType": "uint256",
          "name": "tokenId",
          "type": "uint256"
        }
      ],
      "name": "tokenURI",
      "outputs": [
        {
          "internalType": "string",
          "name": "",
          "type": "string"
        }
      ],
      "stateMutability": "view",
      "type": "function"
    },
    {
      "inputs": [
        {
          "internalType": "address",
          "name": "from",
          "type": "address"
        },
        {
          "internalType": "address",
          "name": "to",
          "type": "address"
        },
        {
          "internalType": "uint256",
          "name": "tokenId",
          "type": "uint256"
        }
      ],
      "name": "transferFrom",
      "outputs": [],
      "stateMutability": "nonpayable",
      "type": "function"
    },
    {
      "inputs": [
        {
          "internalType": "address",
          "name": "newOwner",
          "type": "address"
        }
      ],
      "name": "transferOwnership",
      "outputs": [],
      "stateMutability": "nonpayable",
      "type": "function"
    },
    {
      "inputs": [
        {
          "internalType": "uint256",
          "name": "voucherID",
          "type": "uint256"
        },
        {
          "internalType": "string",
          "name": "ownerID",
          "type": "string"
        }
      ],
      "name": "transferVoucher",
      "outputs": [],
      "stateMutability": "nonpayable",
      "type": "function"
    },
    {
      "inputs": [],
      "name": "unpause",
      "outputs": [],
      "stateMutability": "nonpayable",
      "type": "function"
    },
    {
      "inputs": [
        {
          "internalType": "uint256",
          "name": "",
          "type": "uint256"
        }
      ],
      "name": "vouchers",
      "outputs": [
        {
          "internalType": "uint256",
          "name": "value",
          "type": "uint256"
        },
        {
          "internalType": "string",
          "name": "currencySymbol",
          "type": "string"
        },
        {
          "internalType": "string",
          "name": "ownerID",
          "type": "string"
        },
        {
          "internalType": "string",
          "name": "providerID",
          "type": "string"
        },
        {
          "internalType": "string",
          "name": "beneficiaryID",
          "type": "string"
        },
        {
          "internalType": "string",
          "name": "status",
          "type": "string"
        }
      ],
      "stateMutability": "view",
      "type": "function"
    }
  ],
  "bytecode": "0x60806040523480156200001157600080fd5b506040518060400160405280601081526020017f57696951617265566f75636865725631000000000000000000000000000000008152506040518060400160405280600781526020017f576969516172650000000000000000000000000000000000000000000000000081525081600090816200008f919062000435565b508060019081620000a1919062000435565b5050506000600660006101000a81548160ff021916908315150217905550620000df620000d3620000ed60201b60201c565b620000f560201b60201c565b60006007819055506200051c565b600033905090565b6000600660019054906101000a900473ffffffffffffffffffffffffffffffffffffffff16905081600660016101000a81548173ffffffffffffffffffffffffffffffffffffffff021916908373ffffffffffffffffffffffffffffffffffffffff1602179055508173ffffffffffffffffffffffffffffffffffffffff168173ffffffffffffffffffffffffffffffffffffffff167f8be0079c531659141344cd1fd0a4f28419497f9722a3daafe3b4186f6b6457e060405160405180910390a35050565b600081519050919050565b7f4e487b7100000000000000000000000000000000000000000000000000000000600052604160045260246000fd5b7f4e487b7100000000000000000000000000000000000000000000000000000000600052602260045260246000fd5b600060028204905060018216806200023d57607f821691505b602082108103620002535762000252620001f5565b5b50919050565b60008190508160005260206000209050919050565b60006020601f8301049050919050565b600082821b905092915050565b600060088302620002bd7fffffffffffffffffffffffffffffffffffffffffffffffffffffffffffffffff826200027e565b620002c986836200027e565b95508019841693508086168417925050509392505050565b6000819050919050565b6000819050919050565b600062000316620003106200030a84620002e1565b620002eb565b620002e1565b9050919050565b6000819050919050565b6200033283620002f5565b6200034a62000341826200031d565b8484546200028b565b825550505050565b600090565b6200036162000352565b6200036e81848462000327565b505050565b5b8181101562000396576200038a60008262000357565b60018101905062000374565b5050565b601f821115620003e557620003af8162000259565b620003ba846200026e565b81016020851015620003ca578190505b620003e2620003d9856200026e565b83018262000373565b50505b505050565b600082821c905092915050565b60006200040a60001984600802620003ea565b1980831691505092915050565b6000620004258383620003f7565b9150826002028217905092915050565b6200044082620001bb565b67ffffffffffffffff8111156200045c576200045b620001c6565b5b62000468825462000224565b620004758282856200039a565b600060209050601f831160018114620004ad576000841562000498578287015190505b620004a4858262000417565b86555062000514565b601f198416620004bd8662000259565b60005b82811015620004e757848901518255600182019150602085019450602081019050620004c0565b8683101562000507578489015162000503601f891682620003f7565b8355505b6001600288020188555050505b505050505050565b6146ab806200052c6000396000f3fe608060405234801561001057600080fd5b506004361061018e5760003560e01c80636a5ffbf4116100de5780638da5cb5b11610097578063b88d4fde11610071578063b88d4fde14610438578063c87b56dd14610454578063e985e9c514610484578063f2fde38b146104b45761018e565b80638da5cb5b146103e057806395d89b41146103fe578063a22cb4651461041c5761018e565b80636a5ffbf4146103465780636f7311c91461036257806370a0823114610380578063715018a6146103b0578063832866f1146103ba5780638456cb59146103d65761018e565b806323b872dd1161014b57806342842e0e1161012557806342842e0e146102c057806342966c68146102dc5780635c975abb146102f85780636352211e146103165761018e565b806323b872dd146102655780633e97b43f146102815780633f4ba83a146102b65761018e565b806301ffc9a71461019357806306fdde03146101c3578063081812fc146101e1578063095ea7b314610211578063122388641461022d5780631f99815614610249575b600080fd5b6101ad60048036038101906101a89190612afe565b6104d0565b6040516101ba9190612b46565b60405180910390f35b6101cb6105b2565b6040516101d89190612bf1565b60405180910390f35b6101fb60048036038101906101f69190612c49565b610644565b6040516102089190612cb7565b60405180910390f35b61022b60048036038101906102269190612cfe565b61068a565b005b61024760048036038101906102429190612fa9565b6107a1565b005b610263600480360381019061025e9190612ff2565b6108db565b005b61027f600480360381019061027a919061304e565b6109b7565b005b61029b60048036038101906102969190612c49565b610a17565b6040516102ad969594939291906130b0565b60405180910390f35b6102be610cfb565b005b6102da60048036038101906102d5919061304e565b610d0d565b005b6102f660048036038101906102f19190612c49565b610d2d565b005b610300610d89565b60405161030d9190612b46565b60405180910390f35b610330600480360381019061032b9190612c49565b610da0565b60405161033d9190612cb7565b60405180910390f35b610360600480360381019061035b9190613134565b610e26565b005b61036a610e97565b6040516103779190613350565b60405180910390f35b61039a60048036038101906103959190613372565b61127e565b6040516103a7919061339f565b60405180910390f35b6103b8611335565b005b6103d460048036038101906103cf91906133ba565b611349565b005b6103de6114ad565b005b6103e86114bf565b6040516103f59190612cb7565b60405180910390f35b6104066114e9565b6040516104139190612bf1565b60405180910390f35b61043660048036038101906104319190613471565b61157b565b005b610452600480360381019061044d9190613552565b611591565b005b61046e60048036038101906104699190612c49565b6115f3565b60405161047b9190612bf1565b60405180910390f35b61049e600480360381019061049991906135d5565b61165b565b6040516104ab9190612b46565b60405180910390f35b6104ce60048036038101906104c99190613372565b6116ef565b005b60007f80ac58cd000000000000000000000000000000000000000000000000000000007bffffffffffffffffffffffffffffffffffffffffffffffffffffffff1916827bffffffffffffffffffffffffffffffffffffffffffffffffffffffff1916148061059b57507f5b5e139f000000000000000000000000000000000000000000000000000000007bffffffffffffffffffffffffffffffffffffffffffffffffffffffff1916827bffffffffffffffffffffffffffffffffffffffffffffffffffffffff1916145b806105ab57506105aa82611772565b5b9050919050565b6060600080546105c190613644565b80601f01602080910402602001604051908101604052809291908181526020018280546105ed90613644565b801561063a5780601f1061060f5761010080835404028352916020019161063a565b820191906000526020600020905b81548152906001019060200180831161061d57829003601f168201915b5050505050905090565b600061064f826117dc565b6004600083815260200190815260200160002060009054906101000a900473ffffffffffffffffffffffffffffffffffffffff169050919050565b600061069582610da0565b90508073ffffffffffffffffffffffffffffffffffffffff168373ffffffffffffffffffffffffffffffffffffffff1603610705576040517f08c379a00000000000000000000000000000000000000000000000000000000081526004016106fc906136e7565b60405180910390fd5b8073ffffffffffffffffffffffffffffffffffffffff16610724611827565b73ffffffffffffffffffffffffffffffffffffffff16148061075357506107528161074d611827565b61165b565b5b610792576040517f08c379a000000000000000000000000000000000000000000000000000000000815260040161078990613779565b60405180910390fd5b61079c838361182f565b505050565b6107a96118e8565b6107b1611966565b60008160000151116107f8576040517f08c379a00000000000000000000000000000000000000000000000000000000081526004016107ef9061380b565b60405180910390fd5b6108006119b0565b8060086000600754815260200190815260200160002060008201518160000155602082015181600101908161083591906139d7565b50604082015181600201908161084b91906139d7565b50606082015181600301908161086191906139d7565b50608082015181600401908161087791906139d7565b5060a082015181600501908161088d91906139d7565b5090505061089d336007546119c3565b7f967c8592b26f2fb1d1aee11a097be4f963c6f705f6f053d3d2fad86c26289ce8600754826040516108d0929190613b4e565b60405180910390a150565b6108e3611966565b6108eb6118e8565b806008600084815260200190815260200160002060008201518160000155602082015181600101908161091e91906139d7565b50604082015181600201908161093491906139d7565b50606082015181600301908161094a91906139d7565b50608082015181600401908161096091906139d7565b5060a082015181600501908161097691906139d7565b509050507f16a33aec47d72063d1748cce499433f71ef0b39b375e59ceaa0c6b056b177cc482826040516109ab929190613b4e565b60405180910390a15050565b6109c86109c2611827565b826119e1565b610a07576040517f08c379a00000000000000000000000000000000000000000000000000000000081526004016109fe90613bf0565b60405180910390fd5b610a12838383611a76565b505050565b6008602052806000526040600020600091509050806000015490806001018054610a4090613644565b80601f0160208091040260200160405190810160405280929190818152602001828054610a6c90613644565b8015610ab95780601f10610a8e57610100808354040283529160200191610ab9565b820191906000526020600020905b815481529060010190602001808311610a9c57829003601f168201915b505050505090806002018054610ace90613644565b80601f0160208091040260200160405190810160405280929190818152602001828054610afa90613644565b8015610b475780601f10610b1c57610100808354040283529160200191610b47565b820191906000526020600020905b815481529060010190602001808311610b2a57829003601f168201915b505050505090806003018054610b5c90613644565b80601f0160208091040260200160405190810160405280929190818152602001828054610b8890613644565b8015610bd55780601f10610baa57610100808354040283529160200191610bd5565b820191906000526020600020905b815481529060010190602001808311610bb857829003601f168201915b505050505090806004018054610bea90613644565b80601f0160208091040260200160405190810160405280929190818152602001828054610c1690613644565b8015610c635780601f10610c3857610100808354040283529160200191610c63565b820191906000526020600020905b815481529060010190602001808311610c4657829003601f168201915b505050505090806005018054610c7890613644565b80601f0160208091040260200160405190810160405280929190818152602001828054610ca490613644565b8015610cf15780601f10610cc657610100808354040283529160200191610cf1565b820191906000526020600020905b815481529060010190602001808311610cd457829003601f168201915b5050505050905086565b610d036118e8565b610d0b611d6f565b565b610d2883838360405180602001604052806000815250611591565b505050565b610d3e610d38611827565b826119e1565b610d7d576040517f08c379a0000000000000000000000000000000000000000000000000000000008152600401610d7490613bf0565b60405180910390fd5b610d8681611dd2565b50565b6000600660009054906101000a900460ff16905090565b600080610dac83611e93565b9050600073ffffffffffffffffffffffffffffffffffffffff168173ffffffffffffffffffffffffffffffffffffffff1603610e1d576040517f08c379a0000000000000000000000000000000000000000000000000000000008152600401610e1490613c5c565b60405180910390fd5b80915050919050565b610e2e611966565b610e366118e8565b80600860008481526020019081526020016000206002019081610e5991906139d7565b507f132fbfaa4dd6ffebc037f32ed278c4b05bf46103be3fede391ef3872737fa2158282604051610e8b929190613c7c565b60405180910390a15050565b6060600060075467ffffffffffffffff811115610eb757610eb6612d43565b5b604051908082528060200260200182016040528015610ef057816020015b610edd6129ff565b815260200190600190039081610ed55790505b5090506000815111610f37576040517f08c379a0000000000000000000000000000000000000000000000000000000008152600401610f2e90613cf8565b60405180910390fd5b60005b815181101561127657600860008281526020019081526020016000206040518060c001604052908160008201548152602001600182018054610f7b90613644565b80601f0160208091040260200160405190810160405280929190818152602001828054610fa790613644565b8015610ff45780601f10610fc957610100808354040283529160200191610ff4565b820191906000526020600020905b815481529060010190602001808311610fd757829003601f168201915b5050505050815260200160028201805461100d90613644565b80601f016020809104026020016040519081016040528092919081815260200182805461103990613644565b80156110865780601f1061105b57610100808354040283529160200191611086565b820191906000526020600020905b81548152906001019060200180831161106957829003601f168201915b5050505050815260200160038201805461109f90613644565b80601f01602080910402602001604051908101604052809291908181526020018280546110cb90613644565b80156111185780601f106110ed57610100808354040283529160200191611118565b820191906000526020600020905b8154815290600101906020018083116110fb57829003601f168201915b5050505050815260200160048201805461113190613644565b80601f016020809104026020016040519081016040528092919081815260200182805461115d90613644565b80156111aa5780601f1061117f576101008083540402835291602001916111aa565b820191906000526020600020905b81548152906001019060200180831161118d57829003601f168201915b505050505081526020016005820180546111c390613644565b80601f01602080910402602001604051908101604052809291908181526020018280546111ef90613644565b801561123c5780601f106112115761010080835404028352916020019161123c565b820191906000526020600020905b81548152906001019060200180831161121f57829003601f168201915b50505050508152505082828151811061125857611257613d18565b5b6020026020010181905250808061126e90613d76565b915050610f3a565b508091505090565b60008073ffffffffffffffffffffffffffffffffffffffff168273ffffffffffffffffffffffffffffffffffffffff16036112ee576040517f08c379a00000000000000000000000000000000000000000000000000000000081526004016112e590613e30565b60405180910390fd5b600360008373ffffffffffffffffffffffffffffffffffffffff1673ffffffffffffffffffffffffffffffffffffffff168152602001908152602001600020549050919050565b61133d6118e8565b6113476000611ed0565b565b611351611966565b6113596118e8565b60008260000151116113a0576040517f08c379a000000000000000000000000000000000000000000000000000000000815260040161139790613e9c565b60405180910390fd5b60008160000151116113e7576040517f08c379a00000000000000000000000000000000000000000000000000000000081526004016113de90613f08565b60405180910390fd5b6008600084815260200190815260200160002060000154816000015183600001516114129190613f28565b14611452576040517f08c379a000000000000000000000000000000000000000000000000000000000815260040161144990613fce565b60405180910390fd5b61145b826107a1565b611464816107a1565b61146d83611dd2565b7f727bca462cfba456739b3b102a0d8afd41ddf8142cc416a48c6f8acbb24a6a678383836040516114a093929190613fee565b60405180910390a1505050565b6114b56118e8565b6114bd611f96565b565b6000600660019054906101000a900473ffffffffffffffffffffffffffffffffffffffff16905090565b6060600180546114f890613644565b80601f016020809104026020016040519081016040528092919081815260200182805461152490613644565b80156115715780601f1061154657610100808354040283529160200191611571565b820191906000526020600020905b81548152906001019060200180831161155457829003601f168201915b5050505050905090565b61158d611586611827565b8383611ff9565b5050565b6115a261159c611827565b836119e1565b6115e1576040517f08c379a00000000000000000000000000000000000000000000000000000000081526004016115d890613bf0565b60405180910390fd5b6115ed84848484612165565b50505050565b60606115fe826117dc565b60006116086121c1565b905060008151116116285760405180602001604052806000815250611653565b80611632846121d8565b60405160200161164392919061406f565b6040516020818303038152906040525b915050919050565b6000600560008473ffffffffffffffffffffffffffffffffffffffff1673ffffffffffffffffffffffffffffffffffffffff16815260200190815260200160002060008373ffffffffffffffffffffffffffffffffffffffff1673ffffffffffffffffffffffffffffffffffffffff16815260200190815260200160002060009054906101000a900460ff16905092915050565b6116f76118e8565b600073ffffffffffffffffffffffffffffffffffffffff168173ffffffffffffffffffffffffffffffffffffffff1603611766576040517f08c379a000000000000000000000000000000000000000000000000000000000815260040161175d90614105565b60405180910390fd5b61176f81611ed0565b50565b60007f01ffc9a7000000000000000000000000000000000000000000000000000000007bffffffffffffffffffffffffffffffffffffffffffffffffffffffff1916827bffffffffffffffffffffffffffffffffffffffffffffffffffffffff1916149050919050565b6117e5816122a6565b611824576040517f08c379a000000000000000000000000000000000000000000000000000000000815260040161181b90613c5c565b60405180910390fd5b50565b600033905090565b816004600083815260200190815260200160002060006101000a81548173ffffffffffffffffffffffffffffffffffffffff021916908373ffffffffffffffffffffffffffffffffffffffff160217905550808273ffffffffffffffffffffffffffffffffffffffff166118a283610da0565b73ffffffffffffffffffffffffffffffffffffffff167f8c5be1e5ebec7d5bd14f71427d1e84f3dd0314c0f7b2291e5b200ac8c7c3b92560405160405180910390a45050565b6118f0611827565b73ffffffffffffffffffffffffffffffffffffffff1661190e6114bf565b73ffffffffffffffffffffffffffffffffffffffff1614611964576040517f08c379a000000000000000000000000000000000000000000000000000000000815260040161195b90614171565b60405180910390fd5b565b61196e610d89565b156119ae576040517f08c379a00000000000000000000000000000000000000000000000000000000081526004016119a5906141dd565b60405180910390fd5b565b6001600760008282540192505081905550565b6119dd8282604051806020016040528060008152506122e7565b5050565b6000806119ed83610da0565b90508073ffffffffffffffffffffffffffffffffffffffff168473ffffffffffffffffffffffffffffffffffffffff161480611a2f5750611a2e818561165b565b5b80611a6d57508373ffffffffffffffffffffffffffffffffffffffff16611a5584610644565b73ffffffffffffffffffffffffffffffffffffffff16145b91505092915050565b8273ffffffffffffffffffffffffffffffffffffffff16611a9682610da0565b73ffffffffffffffffffffffffffffffffffffffff1614611aec576040517f08c379a0000000000000000000000000000000000000000000000000000000008152600401611ae39061426f565b60405180910390fd5b600073ffffffffffffffffffffffffffffffffffffffff168273ffffffffffffffffffffffffffffffffffffffff1603611b5b576040517f08c379a0000000000000000000000000000000000000000000000000000000008152600401611b5290614301565b60405180910390fd5b611b688383836001612342565b8273ffffffffffffffffffffffffffffffffffffffff16611b8882610da0565b73ffffffffffffffffffffffffffffffffffffffff1614611bde576040517f08c379a0000000000000000000000000000000000000000000000000000000008152600401611bd59061426f565b60405180910390fd5b6004600082815260200190815260200160002060006101000a81549073ffffffffffffffffffffffffffffffffffffffff02191690556001600360008573ffffffffffffffffffffffffffffffffffffffff1673ffffffffffffffffffffffffffffffffffffffff168152602001908152602001600020600082825403925050819055506001600360008473ffffffffffffffffffffffffffffffffffffffff1673ffffffffffffffffffffffffffffffffffffffff16815260200190815260200160002060008282540192505081905550816002600083815260200190815260200160002060006101000a81548173ffffffffffffffffffffffffffffffffffffffff021916908373ffffffffffffffffffffffffffffffffffffffff160217905550808273ffffffffffffffffffffffffffffffffffffffff168473ffffffffffffffffffffffffffffffffffffffff167fddf252ad1be2c89b69c2b068fc378daa952ba7f163c4a11628f55a4df523b3ef60405160405180910390a4611d6a8383836001612348565b505050565b611d7761234e565b6000600660006101000a81548160ff0219169083151502179055507f5db9ee0a495bf2e6ff9c91a7834c1ba4fdd244a5e8aa4e537bd38aeae4b073aa611dbb611827565b604051611dc89190612cb7565b60405180910390a1565b611dda611966565b611de26118e8565b60086000828152602001908152602001600020600080820160009055600182016000611e0e9190612a35565b600282016000611e1e9190612a35565b600382016000611e2e9190612a35565b600482016000611e3e9190612a35565b600582016000611e4e9190612a35565b5050611e5981612397565b7fae7cb308f3b58eacf0a23c85acd553d0c608d7e318093a2077647ee81223888081604051611e88919061339f565b60405180910390a150565b60006002600083815260200190815260200160002060009054906101000a900473ffffffffffffffffffffffffffffffffffffffff169050919050565b6000600660019054906101000a900473ffffffffffffffffffffffffffffffffffffffff16905081600660016101000a81548173ffffffffffffffffffffffffffffffffffffffff021916908373ffffffffffffffffffffffffffffffffffffffff1602179055508173ffffffffffffffffffffffffffffffffffffffff168173ffffffffffffffffffffffffffffffffffffffff167f8be0079c531659141344cd1fd0a4f28419497f9722a3daafe3b4186f6b6457e060405160405180910390a35050565b611f9e611966565b6001600660006101000a81548160ff0219169083151502179055507f62e78cea01bee320cd4e420270b5ea74000d11b0c9f74754ebdbfc544b05a258611fe2611827565b604051611fef9190612cb7565b60405180910390a1565b8173ffffffffffffffffffffffffffffffffffffffff168373ffffffffffffffffffffffffffffffffffffffff1603612067576040517f08c379a000000000000000000000000000000000000000000000000000000000815260040161205e9061436d565b60405180910390fd5b80600560008573ffffffffffffffffffffffffffffffffffffffff1673ffffffffffffffffffffffffffffffffffffffff16815260200190815260200160002060008473ffffffffffffffffffffffffffffffffffffffff1673ffffffffffffffffffffffffffffffffffffffff16815260200190815260200160002060006101000a81548160ff0219169083151502179055508173ffffffffffffffffffffffffffffffffffffffff168373ffffffffffffffffffffffffffffffffffffffff167f17307eab39ab6107e8899845ad3d59bd9653f200f220920489ca2b5937696c31836040516121589190612b46565b60405180910390a3505050565b612170848484611a76565b61217c848484846124e5565b6121bb576040517f08c379a00000000000000000000000000000000000000000000000000000000081526004016121b2906143ff565b60405180910390fd5b50505050565b606060405180602001604052806000815250905090565b6060600060016121e78461266c565b01905060008167ffffffffffffffff81111561220657612205612d43565b5b6040519080825280601f01601f1916602001820160405280156122385781602001600182028036833780820191505090505b509050600082602001820190505b60011561229b578080600190039150507f3031323334353637383961626364656600000000000000000000000000000000600a86061a8153600a858161228f5761228e61441f565b5b04945060008503612246575b819350505050919050565b60008073ffffffffffffffffffffffffffffffffffffffff166122c883611e93565b73ffffffffffffffffffffffffffffffffffffffff1614159050919050565b6122f183836127bf565b6122fe60008484846124e5565b61233d576040517f08c379a0000000000000000000000000000000000000000000000000000000008152600401612334906143ff565b60405180910390fd5b505050565b50505050565b50505050565b612356610d89565b612395576040517f08c379a000000000000000000000000000000000000000000000000000000000815260040161238c9061449a565b60405180910390fd5b565b60006123a282610da0565b90506123b2816000846001612342565b6123bb82610da0565b90506004600083815260200190815260200160002060006101000a81549073ffffffffffffffffffffffffffffffffffffffff02191690556001600360008373ffffffffffffffffffffffffffffffffffffffff1673ffffffffffffffffffffffffffffffffffffffff168152602001908152602001600020600082825403925050819055506002600083815260200190815260200160002060006101000a81549073ffffffffffffffffffffffffffffffffffffffff021916905581600073ffffffffffffffffffffffffffffffffffffffff168273ffffffffffffffffffffffffffffffffffffffff167fddf252ad1be2c89b69c2b068fc378daa952ba7f163c4a11628f55a4df523b3ef60405160405180910390a46124e1816000846001612348565b5050565b60006125068473ffffffffffffffffffffffffffffffffffffffff166129dc565b1561265f578373ffffffffffffffffffffffffffffffffffffffff1663150b7a0261252f611827565b8786866040518563ffffffff1660e01b8152600401612551949392919061450f565b6020604051808303816000875af192505050801561258d57506040513d601f19601f8201168201806040525081019061258a9190614570565b60015b61260f573d80600081146125bd576040519150601f19603f3d011682016040523d82523d6000602084013e6125c2565b606091505b506000815103612607576040517f08c379a00000000000000000000000000000000000000000000000000000000081526004016125fe906143ff565b60405180910390fd5b805181602001fd5b63150b7a0260e01b7bffffffffffffffffffffffffffffffffffffffffffffffffffffffff1916817bffffffffffffffffffffffffffffffffffffffffffffffffffffffff191614915050612664565b600190505b949350505050565b600080600090507a184f03e93ff9f4daa797ed6e38ed64bf6a1f01000000000000000083106126ca577a184f03e93ff9f4daa797ed6e38ed64bf6a1f01000000000000000083816126c0576126bf61441f565b5b0492506040810190505b6d04ee2d6d415b85acef81000000008310612707576d04ee2d6d415b85acef810000000083816126fd576126fc61441f565b5b0492506020810190505b662386f26fc10000831061273657662386f26fc10000838161272c5761272b61441f565b5b0492506010810190505b6305f5e100831061275f576305f5e10083816127555761275461441f565b5b0492506008810190505b612710831061278457612710838161277a5761277961441f565b5b0492506004810190505b606483106127a7576064838161279d5761279c61441f565b5b0492506002810190505b600a83106127b6576001810190505b80915050919050565b600073ffffffffffffffffffffffffffffffffffffffff168273ffffffffffffffffffffffffffffffffffffffff160361282e576040517f08c379a0000000000000000000000000000000000000000000000000000000008152600401612825906145e9565b60405180910390fd5b612837816122a6565b15612877576040517f08c379a000000000000000000000000000000000000000000000000000000000815260040161286e90614655565b60405180910390fd5b612885600083836001612342565b61288e816122a6565b156128ce576040517f08c379a00000000000000000000000000000000000000000000000000000000081526004016128c590614655565b60405180910390fd5b6001600360008473ffffffffffffffffffffffffffffffffffffffff1673ffffffffffffffffffffffffffffffffffffffff16815260200190815260200160002060008282540192505081905550816002600083815260200190815260200160002060006101000a81548173ffffffffffffffffffffffffffffffffffffffff021916908373ffffffffffffffffffffffffffffffffffffffff160217905550808273ffffffffffffffffffffffffffffffffffffffff16600073ffffffffffffffffffffffffffffffffffffffff167fddf252ad1be2c89b69c2b068fc378daa952ba7f163c4a11628f55a4df523b3ef60405160405180910390a46129d8600083836001612348565b5050565b6000808273ffffffffffffffffffffffffffffffffffffffff163b119050919050565b6040518060c001604052806000815260200160608152602001606081526020016060815260200160608152602001606081525090565b508054612a4190613644565b6000825580601f10612a535750612a72565b601f016020900490600052602060002090810190612a719190612a75565b5b50565b5b80821115612a8e576000816000905550600101612a76565b5090565b6000604051905090565b600080fd5b600080fd5b60007fffffffff0000000000000000000000000000000000000000000000000000000082169050919050565b612adb81612aa6565b8114612ae657600080fd5b50565b600081359050612af881612ad2565b92915050565b600060208284031215612b1457612b13612a9c565b5b6000612b2284828501612ae9565b91505092915050565b60008115159050919050565b612b4081612b2b565b82525050565b6000602082019050612b5b6000830184612b37565b92915050565b600081519050919050565b600082825260208201905092915050565b60005b83811015612b9b578082015181840152602081019050612b80565b60008484015250505050565b6000601f19601f8301169050919050565b6000612bc382612b61565b612bcd8185612b6c565b9350612bdd818560208601612b7d565b612be681612ba7565b840191505092915050565b60006020820190508181036000830152612c0b8184612bb8565b905092915050565b6000819050919050565b612c2681612c13565b8114612c3157600080fd5b50565b600081359050612c4381612c1d565b92915050565b600060208284031215612c5f57612c5e612a9c565b5b6000612c6d84828501612c34565b91505092915050565b600073ffffffffffffffffffffffffffffffffffffffff82169050919050565b6000612ca182612c76565b9050919050565b612cb181612c96565b82525050565b6000602082019050612ccc6000830184612ca8565b92915050565b612cdb81612c96565b8114612ce657600080fd5b50565b600081359050612cf881612cd2565b92915050565b60008060408385031215612d1557612d14612a9c565b5b6000612d2385828601612ce9565b9250506020612d3485828601612c34565b9150509250929050565b600080fd5b7f4e487b7100000000000000000000000000000000000000000000000000000000600052604160045260246000fd5b612d7b82612ba7565b810181811067ffffffffffffffff82111715612d9a57612d99612d43565b5b80604052505050565b6000612dad612a92565b9050612db98282612d72565b919050565b600080fd5b600080fd5b600080fd5b600067ffffffffffffffff821115612de857612de7612d43565b5b612df182612ba7565b9050602081019050919050565b82818337600083830152505050565b6000612e20612e1b84612dcd565b612da3565b905082815260208101848484011115612e3c57612e3b612dc8565b5b612e47848285612dfe565b509392505050565b600082601f830112612e6457612e63612dc3565b5b8135612e74848260208601612e0d565b91505092915050565b600060c08284031215612e9357612e92612d3e565b5b612e9d60c0612da3565b90506000612ead84828501612c34565b600083015250602082013567ffffffffffffffff811115612ed157612ed0612dbe565b5b612edd84828501612e4f565b602083015250604082013567ffffffffffffffff811115612f0157612f00612dbe565b5b612f0d84828501612e4f565b604083015250606082013567ffffffffffffffff811115612f3157612f30612dbe565b5b612f3d84828501612e4f565b606083015250608082013567ffffffffffffffff811115612f6157612f60612dbe565b5b612f6d84828501612e4f565b60808301525060a082013567ffffffffffffffff811115612f9157612f90612dbe565b5b612f9d84828501612e4f565b60a08301525092915050565b600060208284031215612fbf57612fbe612a9c565b5b600082013567ffffffffffffffff811115612fdd57612fdc612aa1565b5b612fe984828501612e7d565b91505092915050565b6000806040838503121561300957613008612a9c565b5b600061301785828601612c34565b925050602083013567ffffffffffffffff81111561303857613037612aa1565b5b61304485828601612e7d565b9150509250929050565b60008060006060848603121561306757613066612a9c565b5b600061307586828701612ce9565b935050602061308686828701612ce9565b925050604061309786828701612c34565b9150509250925092565b6130aa81612c13565b82525050565b600060c0820190506130c560008301896130a1565b81810360208301526130d78188612bb8565b905081810360408301526130eb8187612bb8565b905081810360608301526130ff8186612bb8565b905081810360808301526131138185612bb8565b905081810360a08301526131278184612bb8565b9050979650505050505050565b6000806040838503121561314b5761314a612a9c565b5b600061315985828601612c34565b925050602083013567ffffffffffffffff81111561317a57613179612aa1565b5b61318685828601612e4f565b9150509250929050565b600081519050919050565b600082825260208201905092915050565b6000819050602082019050919050565b6131c581612c13565b82525050565b600082825260208201905092915050565b60006131e782612b61565b6131f181856131cb565b9350613201818560208601612b7d565b61320a81612ba7565b840191505092915050565b600060c08301600083015161322d60008601826131bc565b506020830151848203602086015261324582826131dc565b9150506040830151848203604086015261325f82826131dc565b9150506060830151848203606086015261327982826131dc565b9150506080830151848203608086015261329382826131dc565b91505060a083015184820360a08601526132ad82826131dc565b9150508091505092915050565b60006132c68383613215565b905092915050565b6000602082019050919050565b60006132e682613190565b6132f0818561319b565b935083602082028501613302856131ac565b8060005b8581101561333e578484038952815161331f85826132ba565b945061332a836132ce565b925060208a01995050600181019050613306565b50829750879550505050505092915050565b6000602082019050818103600083015261336a81846132db565b905092915050565b60006020828403121561338857613387612a9c565b5b600061339684828501612ce9565b91505092915050565b60006020820190506133b460008301846130a1565b92915050565b6000806000606084860312156133d3576133d2612a9c565b5b60006133e186828701612c34565b935050602084013567ffffffffffffffff81111561340257613401612aa1565b5b61340e86828701612e7d565b925050604084013567ffffffffffffffff81111561342f5761342e612aa1565b5b61343b86828701612e7d565b9150509250925092565b61344e81612b2b565b811461345957600080fd5b50565b60008135905061346b81613445565b92915050565b6000806040838503121561348857613487612a9c565b5b600061349685828601612ce9565b92505060206134a78582860161345c565b9150509250929050565b600067ffffffffffffffff8211156134cc576134cb612d43565b5b6134d582612ba7565b9050602081019050919050565b60006134f56134f0846134b1565b612da3565b90508281526020810184848401111561351157613510612dc8565b5b61351c848285612dfe565b509392505050565b600082601f83011261353957613538612dc3565b5b81356135498482602086016134e2565b91505092915050565b6000806000806080858703121561356c5761356b612a9c565b5b600061357a87828801612ce9565b945050602061358b87828801612ce9565b935050604061359c87828801612c34565b925050606085013567ffffffffffffffff8111156135bd576135bc612aa1565b5b6135c987828801613524565b91505092959194509250565b600080604083850312156135ec576135eb612a9c565b5b60006135fa85828601612ce9565b925050602061360b85828601612ce9565b9150509250929050565b7f4e487b7100000000000000000000000000000000000000000000000000000000600052602260045260246000fd5b6000600282049050600182168061365c57607f821691505b60208210810361366f5761366e613615565b5b50919050565b7f4552433732313a20617070726f76616c20746f2063757272656e74206f776e6560008201527f7200000000000000000000000000000000000000000000000000000000000000602082015250565b60006136d1602183612b6c565b91506136dc82613675565b604082019050919050565b60006020820190508181036000830152613700816136c4565b9050919050565b7f4552433732313a20617070726f76652063616c6c6572206973206e6f7420746f60008201527f6b656e206f776e6572206f7220617070726f76656420666f7220616c6c000000602082015250565b6000613763603d83612b6c565b915061376e82613707565b604082019050919050565b6000602082019050818103600083015261379281613756565b9050919050565b7f56616c7565206f6620766f7563686572206d757374206265206772656174657260008201527f207468616e203000000000000000000000000000000000000000000000000000602082015250565b60006137f5602783612b6c565b915061380082613799565b604082019050919050565b60006020820190508181036000830152613824816137e8565b9050919050565b60008190508160005260206000209050919050565b60006020601f8301049050919050565b600082821b905092915050565b60006008830261388d7fffffffffffffffffffffffffffffffffffffffffffffffffffffffffffffffff82613850565b6138978683613850565b95508019841693508086168417925050509392505050565b6000819050919050565b60006138d46138cf6138ca84612c13565b6138af565b612c13565b9050919050565b6000819050919050565b6138ee836138b9565b6139026138fa826138db565b84845461385d565b825550505050565b600090565b61391761390a565b6139228184846138e5565b505050565b5b818110156139465761393b60008261390f565b600181019050613928565b5050565b601f82111561398b5761395c8161382b565b61396584613840565b81016020851015613974578190505b61398861398085613840565b830182613927565b50505b505050565b600082821c905092915050565b60006139ae60001984600802613990565b1980831691505092915050565b60006139c7838361399d565b9150826002028217905092915050565b6139e082612b61565b67ffffffffffffffff8111156139f9576139f8612d43565b5b613a038254613644565b613a0e82828561394a565b600060209050601f831160018114613a415760008415613a2f578287015190505b613a3985826139bb565b865550613aa1565b601f198416613a4f8661382b565b60005b82811015613a7757848901518255600182019150602085019450602081019050613a52565b86831015613a945784890151613a90601f89168261399d565b8355505b6001600288020188555050505b505050505050565b600060c083016000830151613ac160008601826131bc565b5060208301518482036020860152613ad982826131dc565b91505060408301518482036040860152613af382826131dc565b91505060608301518482036060860152613b0d82826131dc565b91505060808301518482036080860152613b2782826131dc565b91505060a083015184820360a0860152613b4182826131dc565b9150508091505092915050565b6000604082019050613b6360008301856130a1565b8181036020830152613b758184613aa9565b90509392505050565b7f4552433732313a2063616c6c6572206973206e6f7420746f6b656e206f776e6560008201527f72206f7220617070726f76656400000000000000000000000000000000000000602082015250565b6000613bda602d83612b6c565b9150613be582613b7e565b604082019050919050565b60006020820190508181036000830152613c0981613bcd565b9050919050565b7f4552433732313a20696e76616c696420746f6b656e2049440000000000000000600082015250565b6000613c46601883612b6c565b9150613c5182613c10565b602082019050919050565b60006020820190508181036000830152613c7581613c39565b9050919050565b6000604082019050613c9160008301856130a1565b8181036020830152613ca38184612bb8565b90509392505050565b7f4e6f20766f7563686572732068617665206265656e206d696e74656421000000600082015250565b6000613ce2601d83612b6c565b9150613ced82613cac565b602082019050919050565b60006020820190508181036000830152613d1181613cd5565b9050919050565b7f4e487b7100000000000000000000000000000000000000000000000000000000600052603260045260246000fd5b7f4e487b7100000000000000000000000000000000000000000000000000000000600052601160045260246000fd5b6000613d8182612c13565b91507fffffffffffffffffffffffffffffffffffffffffffffffffffffffffffffffff8203613db357613db2613d47565b5b600182019050919050565b7f4552433732313a2061646472657373207a65726f206973206e6f74206120766160008201527f6c6964206f776e65720000000000000000000000000000000000000000000000602082015250565b6000613e1a602983612b6c565b9150613e2582613dbe565b604082019050919050565b60006020820190508181036000830152613e4981613e0d565b9050919050565b7f496e76616c69642076616c756520666f7220766f756368657220310000000000600082015250565b6000613e86601b83612b6c565b9150613e9182613e50565b602082019050919050565b60006020820190508181036000830152613eb581613e79565b9050919050565b7f496e76616c69642076616c756520666f7220766f756368657220320000000000600082015250565b6000613ef2601b83612b6c565b9150613efd82613ebc565b602082019050919050565b60006020820190508181036000830152613f2181613ee5565b9050919050565b6000613f3382612c13565b9150613f3e83612c13565b9250828201905080821115613f5657613f55613d47565b5b92915050565b7f53756d206f662074617267657420766f7563686572206973206469666665726560008201527f6e74207468616e2073756d206f662073706c697474656420766f756368657273602082015250565b6000613fb8604083612b6c565b9150613fc382613f5c565b604082019050919050565b60006020820190508181036000830152613fe781613fab565b9050919050565b600060608201905061400360008301866130a1565b81810360208301526140158185613aa9565b905081810360408301526140298184613aa9565b9050949350505050565b600081905092915050565b600061404982612b61565b6140538185614033565b9350614063818560208601612b7d565b80840191505092915050565b600061407b828561403e565b9150614087828461403e565b91508190509392505050565b7f4f776e61626c653a206e6577206f776e657220697320746865207a65726f206160008201527f6464726573730000000000000000000000000000000000000000000000000000602082015250565b60006140ef602683612b6c565b91506140fa82614093565b604082019050919050565b6000602082019050818103600083015261411e816140e2565b9050919050565b7f4f776e61626c653a2063616c6c6572206973206e6f7420746865206f776e6572600082015250565b600061415b602083612b6c565b915061416682614125565b602082019050919050565b6000602082019050818103600083015261418a8161414e565b9050919050565b7f5061757361626c653a2070617573656400000000000000000000000000000000600082015250565b60006141c7601083612b6c565b91506141d282614191565b602082019050919050565b600060208201905081810360008301526141f6816141ba565b9050919050565b7f4552433732313a207472616e736665722066726f6d20696e636f72726563742060008201527f6f776e6572000000000000000000000000000000000000000000000000000000602082015250565b6000614259602583612b6c565b9150614264826141fd565b604082019050919050565b600060208201905081810360008301526142888161424c565b9050919050565b7f4552433732313a207472616e7366657220746f20746865207a65726f2061646460008201527f7265737300000000000000000000000000000000000000000000000000000000602082015250565b60006142eb602483612b6c565b91506142f68261428f565b604082019050919050565b6000602082019050818103600083015261431a816142de565b9050919050565b7f4552433732313a20617070726f766520746f2063616c6c657200000000000000600082015250565b6000614357601983612b6c565b915061436282614321565b602082019050919050565b600060208201905081810360008301526143868161434a565b9050919050565b7f4552433732313a207472616e7366657220746f206e6f6e20455243373231526560008201527f63656976657220696d706c656d656e7465720000000000000000000000000000602082015250565b60006143e9603283612b6c565b91506143f48261438d565b604082019050919050565b60006020820190508181036000830152614418816143dc565b9050919050565b7f4e487b7100000000000000000000000000000000000000000000000000000000600052601260045260246000fd5b7f5061757361626c653a206e6f7420706175736564000000000000000000000000600082015250565b6000614484601483612b6c565b915061448f8261444e565b602082019050919050565b600060208201905081810360008301526144b381614477565b9050919050565b600081519050919050565b600082825260208201905092915050565b60006144e1826144ba565b6144eb81856144c5565b93506144fb818560208601612b7d565b61450481612ba7565b840191505092915050565b60006080820190506145246000830187612ca8565b6145316020830186612ca8565b61453e60408301856130a1565b818103606083015261455081846144d6565b905095945050505050565b60008151905061456a81612ad2565b92915050565b60006020828403121561458657614585612a9c565b5b60006145948482850161455b565b91505092915050565b7f4552433732313a206d696e7420746f20746865207a65726f2061646472657373600082015250565b60006145d3602083612b6c565b91506145de8261459d565b602082019050919050565b60006020820190508181036000830152614602816145c6565b9050919050565b7f4552433732313a20746f6b656e20616c7265616479206d696e74656400000000600082015250565b600061463f601c83612b6c565b915061464a82614609565b602082019050919050565b6000602082019050818103600083015261466e81614632565b905091905056fea2646970667358221220b94bc104db16d41e905b5416ecf474f3e65a4a262688d82edfca92ca7859b65c64736f6c63430008120033",
  "linkReferences": {},
  "deployedLinkReferences": {}
}